:1070000055C000006EC000006CC000006AC00000E7
:1070100068C0000066C0000064C0000062C00000DC
:1070200060C000005EC000008FC400005AC00000B5
:1070300058C0000056C0000054C0000052C00000FC
:1070400050C00000DCC000004CC000004AC000007E
:1070500048C0000046C0000044C0000042C000001C
:1070600040C000003EC000003CC000003AC000002C
:1070700038C0000036C0000034C0000032C000003C
:1070800030C000002EC000002CC000002AC000004C
:1070900028C0000026C0000024C0000022C000005C
:1070A00020C000001EC000001CC0000011241FBE34
:1070B000CFEFDAE0DEBFCDBF11E0A0E0B1E0ECE75A
:1070C000FEE702C005900D92AE3BB107D9F721E073
:1070D000AEEBB1E001C01D92A43DB207E1F72ED3A3
:1070E0008DC68ECF84E08093E9008091E80085FF13
:1070F00003C08091F1000CC08091E8008B778093F1
:10710000E8008091E80082FDF0CF8EB38111F9CFC5
:10711000089593E09093E9009091E80095FF0AC0EC
:107120008093F1005D9884E690E09093C501809390
:10713000C40108959091E8009E779093E8009091A3
:10714000E80090FDEDCF9EB39111F9CF0895F8942A
:1071500010926F00109281001092850010928400AE
:1071600081E085BF15BE47985D9A289A0C9400006F
:1071700008952091BE013091BF012F5F3F4F3093A2
:10718000BF012093BE01832F37FF02C08EEF831B08
:10719000880F821710F447980895479A089584B786
:1071A000877F84BF0FB6F894A895809160008861AE
:1071B00080936000109260000FBE90E880E00FB6F0
:1071C000F89490936100809361000FBE81E085BFC9
:1071D00082E085BF3F9A209A559AE1E6F0E09083DD
:1071E000108247985D9A289A109289009AEF90939E
:1071F000880080936F0083E0809381008DC31F928D
:107200001FB61F9211242F938F939F93EF93FF9399
:1072100010928500109284008091C4019091C50164
:10722000009741F001979093C5018093C401892B89
:1072300009F45D9A8091C2019091C301009741F0D9
:1072400001979093C3018093C201892B09F4289A76
:10725000E0E0F0E085919491019649F08091C001C1
:107260009091C10101969093C1018093C001FF915B
:10727000EF919F918F912F911F901FBE1F90189596
:1072800042E061EC82E0DDD242E161E883E0D9D204
:1072900042E160E884E0D5C28091CB01982F9F77CE
:1072A0009132B9F49091CC019032A1F0913289F4ED
:1072B000813A79F48091E800877F8093E80067E065
:1072C00070E083E091E0F1D38091E8008B778093C8
:1072D000E80008958132E9F78091E800877F809384
:1072E000E80067E070E083E091E033D48091E8004B
:1072F0008E77EDCF7F928F929F92AF92BF92CF9277
:10730000DF92EF92FF920F931F93CF93DF9384E06E
:107310008093E9008091E80082FF02C2289884E609
:1073200090E09093C3018093C201DCDE082F853486
:1073300091F48CE49DE19093C1018093C00107B664
:1073400000FCFDCFF999FECF81E180935700E895CD
:107350008DE0DFDE38C08B31B1F1EFEBE80FE433C5
:1073600008F092C0F0E0E050F14C2CC5BBDEF0CF4D
:1073700084E4CFDE80E0EDCF89E5EBCFB3DEC82F2C
:10738000B1DE2C2F30E0322F2227330F90E0880F10
:10739000991F822B932B092E000CAA0BBB0B8093F9
:1073A000C6019093C701A093C801B093C901D0CF83
:1073B00083E5CFCFC4EBD1E00BEB11E08991A9DEDF
:1073C0000C171D07D9F783E08093E9009091E8003E
:1073D0008091E8008E778093E80095FF94C18091BA
:1073E000E80080FF9AC184E08093E9008091E80082
:1073F0008B778093E80094C181E38BDE80E3A9CF93
:1074000087E887DE85E985DE8EE1A3CFE0E0F0E066
:1074100083E095E080935700E89507B600FCFDCF28
:1074200090935700E89507B600FCFDCFE058FF4F5A
:10743000E11520E7F20771F78BCF89E0E1E0F0E09A
:1074400080935700849185CF89E0E0E0F0E0F8CFA9
:1074500089E0E3E0F0E0F4CF89E0E2E0F0E0F0CFB3
:1074600089E557DE80E055DE80E873CF1092C101D8
:107470001092C00137DED82F35DEC82F33DE182F2B
:107480008BEB810F823010F08FE363CF10926F008F
:10749000073609F045C081E180935700E89500E088
:1074A000BB24B394209721F482E080936F008BCFAC
:1074B000C090C601D090C701E090C801F090C9010A
:1074C0001634C1F4E02FF0E0EC29FD29849121DE8F
:1074D000002369F082E0C80ED11CE11CF11CC092AF
:1074E000C601D092C701E092C801F092C9010B25F4
:1074F0002197D8CFD701C601B695A79597958795BF
:1075000067D407DEE2E0CE0ED11CE11CF11CC09274
:10751000C601D092C701E092C801F092C901E8CF3C
:10752000C090C601D090C701E090C801F090C90199
:10753000163441F483E0F60180935700E89507B6CE
:1075400000FCFDCF209729F4163469F18DE0E1DDD0
:10755000ABCF1634A1F510E000E07724739400233C
:1075600059F18090C6019090C701A090C801B090D9
:10757000C901B8DD982F812FF4010C0170925700DA
:10758000E8951124F2E08F0E911CA11CB11C809291
:10759000C6019092C701A092C801B092C901072507
:1075A00021972097E1F685E0F60180935700E89552
:1075B00007B600FCFDCFCACF95DD182FF0CF92DDC6
:1075C000682F8091C6019091C701A091C801B09128
:1075D000C901B695A7959795879502D48091C60164
:1075E0009091C701A091C801B091C9010296A11D57
:1075F000B11D8093C6019093C701A093C801B093B9
:10760000C90121979FCFC091C601D091C7016ADD02
:1076100090E021E0FE010C0120935700E895112431
:1076200097CEC090C601D090C701E090C801F090FD
:10763000C90158DDF601E16090E021E00C012093E2
:107640005700E8951124F2E0CF0ED11CE11CF11C8B
:10765000C092C601D092C701E092C801F092C90160
:1076600077CEE091C601F091C70185E08093570085
:10767000E89507B600FCFDCF6BCEE091C601F09116
:10768000C701C591D4918D2F44DD8C2F62CE2ADDA8
:10769000682F8091C6019091C701A091C801B09157
:1076A000C901B695A795979587959AD38091C601FC
:1076B0009091C701A091C801B091C9010296A11D86
:1076C000B11D6DCEC090C601D090C701E090C80139
:1076D000F090C901D701C601B695A79597958795F2
:1076E00077D317DD22E0C20ED11CE11CF11CC09241
:1076F000C601D092C701E092C801F092C90163CEE1
:107700008EB3882369F08091E80080FFF9CF8091E3
:10771000E8008E778093E80062CE8EB381115FCE51
:10772000DF91CF911F910F91FF90EF90DF90CF905D
:10773000BF90AF909F908F907F9008952091000808
:1077400030910108109201081092000884B714BE0D
:107750000FB6F894A895909160009861909360009E
:10776000109260000FBE81FD0AC080FF1BC0E0E0E8
:10777000F0E0459154914F3F5F4FA1F0E8DC0FDD01
:1077800078941092C1011092C00180910201811180
:1077900019C08091E00081608093E000D8DC80E037
:1077A00090E0089583FFEBCF80910001909101015B
:1077B0008217930721F3E0E0F0E085919491019620
:1077C000F1F2DCCF97DDEDD28091C0019091C10143
:1077D00081349F4110F010920201CBDCD6CFFA0128
:1077E000292F30E022303105C1F02330310551F02E
:1077F0002130310509F582E190E022EA31E0318360
:1078000020830895882371F0813089F08230A1F4BB
:1078100088E190E02AE031E0F2CF8EE390E024E6C8
:1078200031E0EDCF84E090E020E631E0E8CF82E285
:1078300090E020E431E0E3CF90E080E030E020E031
:10784000DECF8093E900EBEEF0E080818160808301
:10785000EDEEF0E010826093EC0040838091EE004A
:10786000881F8827881F08958091CB0187FF11C04A
:107870008091E80082FF06C08091E8008B778093BA
:10788000E80003C08EB38111F3CF08958EB388232F
:10789000E1F38091E80080FFF9CF8091E8008E77D6
:1078A000EECF0F931F93CF93DF9341D048D0C8ED15
:1078B000D0E088818F7788838881806888838881F9
:1078C0008F7D888319BC1EBA1092CA0100EE10E0A9
:1078D000F80180818B7F808388818160888342E08A
:1078E00060E080E0AEDFE1EEF0E080818E7F8083BB
:1078F000E2EEF0E080818160808380818860808317
:10790000F80180818E7F8083888180618883DF9108
:10791000CF911F910F910895E7EDF0E08081816094
:1079200080838AE482BF81E08093D301BACFE8EDFF
:10793000F0E080818E7F80831092E20008951092A3
:10794000DA001092E10008951F920F920FB60F9285
:1079500011242F933F934F935F936F937F938F9354
:107960009F93AF93BF93EF93FF938091DA0080FFD3
:1079700017C08091D80080FF13C08091DA008E7FFD
:107980008093DA008091D90080FF4EC080E189BDEC
:1079900082E189BD09B400FEFDCF81E08EBB00D23B
:1079A0008091E10080FF17C08091E20080FF13C04A
:1079B0008091E2008E7F8093E2008091E2008061FE
:1079C0008093E2008091D80080628093D80019BC37
:1079D00085E08EBBE5D18091E10084FF30C08091CD
:1079E000E20084FF2CC080E189BD82E189BD09B439
:1079F00000FEFDCF8091D8008F7D8093D8008091CC
:107A0000E1008F7E8093E1008091E2008F7E809381
:107A1000E2008091E20081608093E2008091CA01DF
:107A2000882331F084E009C019BC1EBAB9D1B8CF9F
:107A30008091E30087FDF6CF81E08EBBB1D18091CC
:107A4000E10083FF21C08091E20083FF1DC080918F
:107A5000E100877F8093E10082E08EBB1092CA0133
:107A60008091E1008E7F8093E1008091E2008E7F23
:107A70008093E2008091E20080618093E20042E026
:107A800060E080E0DEDE8CD1FF91EF91BF91AF919D
:107A90009F918F917F916F915F914F913F912F9126
:107AA0000F900FBE0F901F901895FC01CB012091F5
:107AB000D1013091D2012617370790F0009729F4B1
:107AC0002091E8002E772093E80040E0009751F4E1
:107AD000411108C08091E80082FF30C080E0089525
:107AE000C901F3CF2EB3222391F1253061F120910A
:107AF000E80023FD2AC02091E80022FDEBCF209171
:107B0000E80020FFE3CF3091F3002091F2000097CE
:107B100019F02830310558F041E02830310509F0DE
:107B200040E02091E8002E772093E800CFCF4191EC
:107B30004093F10001972F5F3F4FE9CF8EB3882329
:107B400031F0853039F683E0089581E0089582E0D0
:107B50000895FC01CB01009729F42091E8002B77D0
:107B60002093E800009731F48091E80080FF1BC06B
:107B700080E008952EB32223F9F02530C9F020913A
:107B8000E80023FD17C02091E80022FFEBCF3091E1
:107B9000F3002091F200232B01F32091F1002193B7
:107BA0000197A9F7DACF8EB3882331F08530E1F65B
:107BB00083E0089581E0089582E008950F931F9374
:107BC000CF93DF9300D0CDB7DEB78BEC91E0FC0113
:107BD00001962091F100208321E0833D9207B9F7BF
:107BE0005BDB8091E80083FF29C08091CB019091FD
:107BF000CC019A3018F5E92FF0E0EC5CF04CE2C0D3
:107C00008238E1F48091CF0187708093E900809100
:107C1000EB0085FB882780F91092E9009091E8003D
:107C2000977F9093E8008093F1001092F10080918B
:107C3000E8008E77B1C0823009F492C08091E800EC
:107C400083FF0AC08091EB0080628093EB008091FB
:107C5000E800877F8093E8000F900F90DF91CF912D
:107C60001F910F9108959091EB0090619093EB001C
:107C700021E030E001C0220F8A95EAF72093EA0064
:107C80001092EA008091EB0088607FC08111D6CF0E
:107C90001091CD011F770FB7F8948091E800877F8E
:107CA0008093E800E1DD8091E80080FFFCCF8091C7
:107CB000E3008078812B8093E30080688093E30069
:107CC00082E0111183E08EBB0FBFB8CF80588230A5
:107CD00008F0B4CFAE014F5F5F4F6091CF0180914C
:107CE000CD019091CE017BDDBC01892B09F4A6CF9B
:107CF0008091E800877F8093E80089819A81D5DEB2
:107D00008091E8008B778093E80098CF803809F065
:107D100095CF8091E800877F8093E8008091CA0129
:107D20008093F10084CF811189CF9091CD01923061
:107D300008F084CF8091E800877F8093E8009093DB
:107D4000CA0192DD8091CA01882311F084E005C048
:107D50008091E30087FDFACF81E08EBB91DA6ECF90
:107D60008091CD01811113C08091CF01877009F4FA
:107D700065CF8093E9002091EB0020FF08C093308D
:107D800009F071CF8091EB0080628093EB0010923C
:107D9000E9008091E800877F8093E80065DD4ECFA1
:107DA0000895CF938EB3882359F0C091E900C7702E
:107DB0001092E9008091E80083FD00DFC093E900A4
:107DC000CF910895EE0FFF1F0590F491E02D0994D7
:107DD000F999FECF92BD81BDF89A992780B5089593
:107DE000262FF999FECF1FBA92BD81BD20BD0FB6D7
:107DF000F894FA9AF99A0FBE01960895F894FFCF75
:107E0000BE39363A033B473B443A243A443A443A73
:107E1000443A443A443AA839443A283A443AA839C8
:107E20002C3A3D3BDA39B639443AFC39443A443AC3
:107E3000443A443A443A443A443A443A443A443A52
:107E4000BC39303A113B623B063A443A363A443A3E
:107E5000443A443A443A443A313B443A443AD839B1
:107E6000443A1D3A003AB839003E1B3E1E3E1B3EC6
:0C7E70001E3E463E663E1E3E863E933E91
:107E7C007777010000000000000818034D0069002E
:107E8C00630072006F0063006800690070002000DE
:107E9C0054006500630068006E006F006C006F009A
:107EAC0067007900200049006E0063002E0000007E
:107EBC00220347005A005400200047004F002000C6
:107ECC0062007500740074006F006E0020000000EA
:107EDC000403090409023E00020100803209040077
:107EEC000001020201000524001001042402040513
:107EFC0024060001070582030800FF0904010002A3
:107F0C000A00000007050402100001070583021097
:107F1C0000011201100102000008D80485E60100DE
:0E7F2C00020100014341544552494E410000FC
:040000030000700089
:00000001FF
