:100000000C94FB010C9423020C9423020C94230205
:100010000C9423020C9423020C9423020C942302CC
:100020000C9423020C9423020C94C9130C944114D5
:100030000C9423020C9423020C9423020C942302AC
:100040000C9423020C9423020C9423020C9423029C
:100050000C9423020C9423020C9423020C947F131F
:100060000C9423020C9423020C9423020C9423027C
:100070000C9423020C9423020C9423020C9423026C
:100080000C9423020C9423020C9423020C9423025C
:100090000C9423020C9423020C9423020C9423024C
:1000A0000C9423020C9423020C9423020000000001
:1000B0000000000000000000000000002A002B00EB
:1000C0002800000000000000000000000000000008
:1000D0000000000000000000000000000000000020
:1000E0000000000000000000000000002C001E02C4
:1000F00034022002210222022402340026022702B6
:1001000025022E0236002D003700380027001E0081
:100110001F002000210022002300240025002600CB
:100120003302330036022E00370238021F02040267
:10013000050206020702080209020A020B020C026B
:100140000D020E020F02100211021202130214021B
:10015000150216021702180219021A021B021C02CB
:100160001D022F003100300023022D023500040053
:10017000050006000700080009000A000B000C003B
:100180000D000E000F0010001100120013001400EB
:10019000150016001700180019001A001B001C009B
:1001A0001D002F0231023002350200000000000065
:1001B000000000000000000000000000000000003F
:1001C000000000000000000000000000000000002F
:1001D000000000000000000000000000000000001F
:1001E000000000000000000000000000000000000F
:1001F00000000000000000000000000000000000FF
:1002000000000000000000000000000000000000EE
:1002100000000000000000000000000000000000DE
:1002200000000000000000000000000000000000CE
:1002300000000000000000000000000000000000BE
:1002400000000000000000000000000000000000AE
:10025000000000000000000000000000000000009E
:10026000000000000000000000000000000000008E
:10027000000000000000000000000000000000007E
:10028000000000000000000000000000000000006E
:10029000000000000000000000000000000000005E
:1002A000000000000000000000000000080B000239
:1002B00002020000090400000102020000052400FF
:1002C0001001052401010104240206052406000191
:1002D0000705810310004009040100020A00000024
:1002E00007050202400000070583024000000403E6
:1002F000090412010002EF020140D80485E6000162
:1003000001020301475A5400475A5420474F2042E4
:100310007574746F6E0000000000240027002A002E
:100320002D003000000000002300260029002C00D2
:100330002F000000000200090F0000030401000C60
:1003400000000000000000000000000000000000AD
:100350000005010906A1018502050719E029E71535
:10036000002501750195088102050C950175081598
:100370000026FF00190029FF810005079506750872
:10038000150026E700190029E78100C0050C0901C6
:10039000A1018504150026FF0319002AFF03950417
:1003A00075108100C00408020110408040102040F8
:1003B000804080080204018040201002011080105B
:1003C0002040402000000000250028002B002E00C7
:1003D00031000404040404030405020202020403BD
:1003E00002020202060606060606040402020204CF
:1003F00004008316241D11241FBECFEFDAE0DEBFF8
:10040000CDBF25E0A8E9B1E001C01D92A833B20735
:10041000E1F711E0A0E0B1E0E4E4FDE302C0059003
:100420000D92A839B107D9F711E0CAEFD1E004C0A5
:100430002197FE010E946A1DC93FD107C9F70E949A
:10044000EE170C94951E0C940000AC014E5C5F4FAF
:100450002AE0FB01DC01529601900D922A95E1F70A
:10046000665F7F4F0A968417950791F781E008959C
:100470002091A3023091A4028217930798F4FC0103
:10048000EE0FFF1F8E0F9F1FE091AD02F091AE02A5
:10049000E80FF91F5083418362838091A502806831
:1004A0008093A502089590911402911103C08FEFDB
:1004B0009FEF08954FB7F89492E09093E9009091E0
:1004C000F200292F30E01216130614F421E030E078
:1004D000232B29F084E6809313028091F100992365
:1004E00039F02091F200211103C02BE62093E8009F
:1004F0004FBF9923E1F290E00895DC01FB011296D1
:100500002C911297848195812817190641F49181C5
:100510008081813A31F49D7F81E0913009F080E063
:1005200008958132E1F79B3029F482811F968C93E4
:1005300081E008959A3099F7828150968C93F8CF94
:10054000DC01FB0188E4808389E4818384E4828385
:100550001D969C911D979F709F5B93831D968D9117
:100560009C9124E0969587952A95E1F78F708F5B93
:10057000848385E0089581508F3008F047C0E82FCC
:10058000F0E0EB53FD4F0C946A1DE202E602D40248
:10059000DA02DE02060306030603E902EF02F302B3
:1005A000F702FD0206030103809180008F7780939C
:1005B00080000895809180008F7DF9CF8091800028
:1005C000877FF5CF84B58F7784BD089584B58F7DFF
:1005D000FBCF809190008F77809390000895809159
:1005E00090008F7DF9CF80919000877FF5CF80912B
:1005F000C0008F778093C00008958091C0008F7DE8
:10060000F9CF8091C200877F8093C2000895CF9375
:10061000DF93282F30E0F901EE5CFC4F8491F90163
:10062000EB55FC4FD491F901EE52FC4FC491CC2311
:10063000A1F081110E94BB02EC2FF0E0EE0FFF1F32
:10064000EC5DFC4FA591B491EC91ED2381E090E03D
:1006500009F480E0DF91CF91089580E090E0FACF37
:10066000CF93DF9390E0FC01EB55FC4F24918E5229
:100670009C4FFC0184918823C9F090E0880F991F5A
:10068000FC01EA5EFC4FA591B491FC01EC53FC4FD8
:10069000C591D49161110DC09FB7F8948C912095AC
:1006A00082238C938881282328839FBFDF91CF9159
:1006B0000895623051F49FB7F8943C91822F809551
:1006C00083238C93E8812E2BEFCF8FB7F894EC9196
:1006D0002E2B2C938FBFEACF0F931F93CF93DF93D3
:1006E000EC01842F1D861E861F86188A198A1A8A95
:1006F0001D8A1E8A1F8A188E1A8E198E1D8E688377
:1007000049830A831B832C8318860D831E832F83C2
:1007100019861A861B861C8628E733E13C8B2B8BB7
:1007200062E00E9430031D861A861B861C86DF91BC
:10073000CF911F910F9108953FB7F8948091F601E2
:100740009091F701A091F801B091F90126B5A89B0D
:1007500005C02F3F19F00196A11DB11D3FBFBA2F53
:10076000A92F982F8827BC01CD01620F711D811D13
:10077000911D42E0660F771F881F991F4A95D1F798
:1007800008950F931F93CF93DF9300D000D000D034
:100790001F92CDB7DEB78091A50287FF66C00E9489
:1007A0009C030091A9021091AA022091AB02309102
:1007B000AC02601B710B820B930B623371058105D8
:1007C000910568F3F8948091B102E091AF02F09145
:1007D000B0024091A6025091A7022091AD02309143
:1007E000AE025A83498389010F5F1F4FD9019C9143
:1007F0009F839081982B9E839081809589238D8300
:100800008D818C8388E08B835E816D814F813B81FC
:100810002C8189819A81D801508347FD252F3A95F3
:100820002083262F39F0441F00C0000060830000A1
:1008300000C0F2CF38E04D9160830000019761F76E
:100840004F833B832C839A83898378940E949C03F3
:100850006093A9027093AA028093AB029093AC02BA
:100860008091A5028F778093A50227960FB6F89402
:10087000DEBF0FBECDBFDF91CF911F910F910895C5
:100880008F929F92AF92BF92CF92DF92EF92FF92A0
:100890004B015C010E949C036B017C010E949C0344
:1008A0006C197D098E099F09683E73408105910589
:1008B000A8F321E0821A9108A108B10888EEC80EB9
:1008C00083E0D81EE11CF11C81149104A104B10441
:1008D00029F7FF90EF90DF90CF90BF90AF909F905F
:1008E0008F9008952FB7F8946091F2017091F30101
:1008F0008091F4019091F5012FBF08958093E90054
:100900008091F200882319F08AE38093E80008952B
:100910004091D9015091DA012091D7013091D8014D
:1009200042175307B4F49091E8009570E1F3909169
:10093000E80092FD19C08093F1008091D901909157
:10094000DA0101968F739927892B19F48EEF809322
:10095000E8008091D9019091DA0101969093DA0133
:100960008093D90181E0089580E00895EF92FF928D
:100970000F931F93CF93DF93F82E192FE62E042F9A
:1009800081E0860F880F0E94880483E00E9488041B
:10099000CF2DD12FEC0EFD2EF11CCE15DF05B9F0B9
:1009A00007FF13C0FE0184910E948804182F80E085
:1009B0000E948804812321968111EFCFDF91CF918E
:1009C0001F910F91FF90EF9008958881EDCF81E006
:1009D000F5CFDF92EF92FF920F931F93CF93DF93A8
:1009E000D82E8A01EB017B01E40EF51ECE15DF0542
:1009F00059F0D7FE12C0FE0184910E94880421960E
:100A00008111F4CF0FEF1FEFC801DF91CF911F913C
:100A10000F91FF90EF90DF9008958881EECFEF92D5
:100A2000FF920F931F93CF93DF93FB012081213817
:100A300071F52381223259F5DC0112964C91248103
:100A400035814217130619F5EC010B851C85F12C35
:100A5000E12C0115110589F0F8014481558162816D
:100A6000738180E80E94E9048F3F980749F0E80EFF
:100A7000F91ED8010D911C91ECCF81E08F87C70141
:100A8000DF91CF911F910F91FF90EF90089590E02B
:100A900080E0F6CFCF93DF93CDB7DEB769970FB67F
:100AA000F894DEBF0FBECDBFFC01DB018C918F5FE0
:100AB0008C939E012D5F3F4F8DE0D9011D928A9549
:100AC000E9F729E0298384E08A8391E09D8383E02C
:100AD0008E832A8721E22B879C879D879F8722E22E
:100AE000288B27E02B8B25E02C8B8E8B20E430E0AD
:100AF000388F2F8B998F82818B8395858685998BF3
:100B00008A8B838180688D8B49E150E0BE016F5FE5
:100B10007F4F80E00E94E90469960FB6F894DEBF2B
:100B20000FBECDBFDF91CF9108952FB7F894877096
:100B30008093E9009091E800892F807295FF04C0AE
:100B40009091F20080E4891B2FBF08957F928F92CD
:100B50009F92AF92BF92CF92DF92EF92FF920F934C
:100B60001F93CF93DF93C82E8B017A0180911402DB
:100B7000811110C08FEF9FEFDF91CF911F910F91E7
:100B8000FF90EF90DF90CF90BF90AF909F908F90AD
:100B90007F9008958091DD0180FF05C08091E00085
:100BA00082608093E000CE2DDF2DD12C8AEFB82E0D
:100BB0008C2D8770982E8C2D8072882E8C2D8074B1
:100BC000782E9AE3A92E209719F4DD2009F452C05B
:100BD0008C2D0E94950581110AC0BA94BB2051F258
:100BE00061E070E080E090E00E944004ECCF8C1760
:100BF0001D0611F00CF08C2F9FB7F8949092E9002D
:100C00002091E80025FD02C09FBFDDCF282F30E0F6
:100C1000C21BD30B882029F08150A0F01092F10064
:100C2000FBCFF801C7FC0AC0815050F041914093BE
:100C3000F100FACF44914093F10031968150D0F702
:100C4000020F131FDD2021F0A092E800D12CDCCF91
:100C50008091E80085FD07C0A092E800DD24D394D0
:100C6000209791F2F3CF209779F6772069F2A0923E
:100C7000E800CACF84E68093DC01C7017DCFAF9244
:100C8000BF92CF92DF92EF92FF920F931F93CF9379
:100C9000DF931F92CDB7DEB77C0169836A015901EA
:100CA00041E050E0BE016F5F7F4FFC0183810E94F5
:100CB000A6058C0197FD0BC0F7018381A501B60144
:100CC00080640E94A605080F191F97FD8C01C801BA
:100CD0000F90DF91CF911F910F91FF90EF90DF90D8
:100CE000CF90BF90AF9008959FB7F894877080938E
:100CF000E9008091F2009FBF0895AF92BF92CF921A
:100D0000DF92EF92FF920F931F93CF93DF936C01CB
:100D10007B018B01040F151FEB015E01AE18BF08AC
:100D2000C017D10759F06991D601ED91FC9101905E
:100D3000F081E02DC6010995892B79F7C501DF9176
:100D4000CF911F910F91FF90EF90DF90CF90BF90C8
:100D5000AF9008958091CF0181110DC082E0809302
:100D6000CB0184E08093CC011092CE011092CD0192
:100D700081E08093CF018BEC91E008950F931F9356
:100D8000CF93DF931F92CDB7DEB782E0898342E431
:100D900050E06CEA72E080E80E94E9040E94AA0632
:100DA000DC0112960D911C910115110589F0D801F5
:100DB000ED91FC910280F381E02DBE016F5F7F4FCA
:100DC000C801099597FD04C0F80100851185ECCF95
:100DD00089810F90DF91CF911F910F910895CF934B
:100DE000DF93FC01DB01818114963C911497682FFD
:100DF000630F7727771F683071059CF5C281D38117
:100E0000209739F5B383A283908112969C93129711
:100E100013968C93139715968C911597890F808351
:100E200090E080E0831708F52181C22FD0E0BE0159
:100E300060507F4F16964D915C911797480F591F40
:100E4000EA014881EB0148832F5F21830196EACFB5
:100E5000EA014885598541155105D1F7B987A88719
:100E6000D3CF80E0DF91CF91089581E0FBCFCF9386
:100E700080910B0281112CC0C1E0C093FE01C09390
:100E8000FF0184E092E090930102809300021092AF
:100E900003021092020280E291E09093FB018093A2
:100EA000FA011092060210920502109208021092A6
:100EB0000702C0930902C0930A0281EC80930402E6
:100EC0000E94AA066AEF71E00E94EF06C0930B022F
:100ED0008AEF91E0CF910895CF93DF93EC01809159
:100EE0001201882331F083E00E94A6051816190626
:100EF00034F081E090E09B838A8380E090E0DF9192
:100F0000CF910895CF93DF931F92CDB7DEB769835A
:100F1000DC01ED91FC910280F381E02D41E050E095
:100F2000BE016F5F7F4F09950F90DF91CF910895BC
:100F300083E00C947E0483E00E94950590E0089580
:100F4000FC018485958597FD05C02FEF3FEF358720
:100F5000248708950C945302CF93DF93EC018C8582
:100F60009D8597FF04C00E9453029D878C878C85C6
:100F70009D85DF91CF910895FC018485958597FD2E
:100F800006C082E00E94740690E00196089582E017
:100F90000E94740690E00895CF93DF93EC010E94C5
:100FA0003707AE014C5F5F4F28E030E062E0DF9131
:100FB000CF910C943F06089590E080E008950F9340
:100FC0001F93CF93DF93EB018A010E9437079801AB
:100FD000AE0164E0DF91CF911F910F910C943F0619
:100FE000EFE8F2E030E020E0419151912F5F3F4F78
:100FF000452B79F4220F331FF901E357FD4F9183FD
:10100000808348E050E06FE872E08DE892E00C9455
:10101000DF072430310541F7F4CFEDE8F2E022811B
:1010200033812817390711F413821282329622E095
:10103000E539F207A1F748E050E06FE872E08DE88B
:1010400092E00C94DF0790E080E0089580E008953E
:101050000F931F93CF93DF93CDB7DEB7C456D1095B
:101060000FB6F894DEBF0FBECDBFFC01DB019C9133
:101070009E5F9C939E01295F3F4F8AE5D9011D9297
:101080008A95E9F788E089838BE08A8322E02C83C4
:1010900091E09D839E8339E0398764E06A879E876B
:1010A0009F873A8B44E24B8B9C8BA0E0B1E0BE8BD8
:1010B000AD8B09E010E0188F0F8B998F3B8F6C8FF1
:1010C0002F8F98A353E059A387E08CA34DA39EA331
:1010D000B8A7AFA3A1E4B0E0BAA7A9A786E08BA701
:1010E0004CA72DA79EA79FA789AB4AAB2BAB2CABD8
:1010F0002DAB3FAB48AF59AF9AAF5BAF9CAF2DAFB5
:101100009EAF21963FAF219722964FAF229723960D
:101110005FAF239724962FAF249725966FAF25971F
:1011200026969FAF269727969FAF279728969FAF23
:1011300028972A963FAF2A9745E02B964FAF2B97DB
:101140002D962FAF2D9760E470E02F967FAF6EAF96
:101150002F9763964FAF639785E264968FAF64973E
:1011600065969FAF659766969FAF669767969FAFA8
:10117000679768963FAF689769964FAF69976B9688
:101180002FAF6B976D967FAF6EAF6D97A1964FAFF8
:10119000A197A2968FAFA297A3969FAFA397A4966D
:1011A0009FAFA497A5965FAFA59792819B839B87DE
:1011B0009F5F9A8F9D8F83812C968FAF2C978F5F27
:1011C00080686A968FAF6A9744E650E0BE016F5F11
:1011D0007F4F80E00E94E904CC59DF4F0FB6F894AE
:1011E000DEBF0FBECDBFDF91CF911F910F9108954C
:1011F0000F931F93CF93DF93CDB7DEB7C058D109BC
:101200000FB6F894DEBF0FBECDBF02EB12E0863002
:1012100038F492E5899FF00111248F010C5F1C4F77
:10122000F801819189839E012E5F3F4FC801A8017B
:101230004F5E5F4F6191D9016D939D014E175F071E
:10124000C9F7F80121892A8BDE0111969E012D5CD8
:101250003F4FBD01FC014289538952965C935297DE
:1012600053964C935397448954964C93549745897D
:1012700055964C935597468956964C935697478961
:1012800057964C935797408D58964C935897418D4D
:1012900059964C935997428D5A964C935A97438D31
:1012A0005B964C935B970A961A962A173B0791F622
:1012B000D801AC5BBF4F8C9126968FAF26971196C5
:1012C0008C9127968FAF279711968C9128968FAF88
:1012D0002897F801E95BFF4F808129968FAF299706
:1012E00048E450E085E192E00E946C07C058DF4F6F
:1012F0000FB6F894DEBF0FBECDBFDF91CF911F9127
:101300000F910895AC014E5C5F4FBC01685B7F4F4D
:101310002AE0FB01DC01529601900D922A95E1F73B
:101320000A9684179507A1F7089530E020E0241766
:10133000350778F4FB01E20FF31FE081DC01119621
:10134000EC932F5F3F4F01962031310581F781E00B
:101350000895FC011182F5CFFC01E85BFF4F11827B
:10136000108232961082118212823396108211827C
:1013700012823396108231961082FC0160831182B2
:10138000118AEC5BFF4F10823196108231961082E9
:10139000319610820C94820990E00E9438020C94DD
:1013A000C103CF92DF92EF926B01E82E682FA60166
:1013B00090E080E00E9438026E2DA60181E090E06E
:1013C0000E9438026E2DA60182E090E00E94380251
:1013D0006E2DA60183E090E00E9438026E2DA601DA
:1013E00084E090E00E943802EF90DF90CF900C9460
:1013F000C103FC019C01285F3F4F90E080E04481E5
:101400004111019614823196E217F307C1F708954E
:10141000CF93DF93DC0190E2960F9830B0F41496EE
:101420008C91149721E030E001C0220F9A95EAF7E1
:10143000442341F0282B14962C9381E090E0DF9117
:10144000CF91089520952823F6CFFD0136964423A9
:10145000D1F0CD010C96EF012991621771F3C817F5
:10146000D907D1F790E080E02191211105C0A80FA4
:10147000B91F16966C93E1CF019686309105A1F7BE
:1014800090E080E0DCCF90E080E02191621305C025
:10149000A80FB91F16961C92D0CF019686309105E1
:1014A000A1F7EECFCF92DF92FF920F931F93CF93CE
:1014B000DF938C01F42EE62FF0E0EE0FFF1FE455D2
:1014C000FF4FC590D490D801ED91FC910484F5852F
:1014D000E02D6C2DC8010995EC01892B11F4F11058
:1014E00070C0D0FE0CC0D801ED91FC910484F5854C
:1014F000E02D4F2D60EEC8010995C82BD92BD1FEE8
:101500000CC0D801ED91FC910484F585E02D4F2DA0
:1015100061EEC8010995C82BD92BD2FE0CC0D801A9
:10152000ED91FC910484F585E02D4F2D62EEC8010C
:101530000995C82BD92BD3FE0CC0D801ED91FC9195
:101540000484F585E02D4F2D63EEC8010995C82B65
:10155000D92BD4FE0CC0D801ED91FC910484F58503
:10156000E02D4F2D64EEC8010995C82BD92BD5FE6F
:101570000CC0D801ED91FC910484F585E02D4F2D30
:1015800065EEC8010995C82BD92BD6FE0CC0D80131
:10159000ED91FC910484F585E02D4F2D66EEC80198
:1015A0000995C82BD92BD7FE0CC0D801ED91FC9121
:1015B0000484F585E02D4F2D67EEC8010995C82BF1
:1015C000D92BCE01DF91CF911F910F91FF90DF902A
:1015D000CF9008950F931F93CF93DF93EC0140E0DA
:1015E0000E94520A8C01892B39F0E881F98102842A
:1015F000F385E02DCE010995C801DF91CF911F91B0
:101600000F9108950F931F93CF93DF93EC0141E067
:101610000E94520A8C01892B39F0E881F9810284F9
:10162000F385E02DCE010995C801DF91CF911F917F
:101630000F910895FF920F931F93CF93DF938C0127
:10164000F62E0E94020BEC01892B21F06F2DC801B0
:101650000E94EA0ACE01DF91CF911F910F91FF9076
:1016600008950F931F93CF93DF9300D000D0CDB791
:10167000DEB79AE0899FF0011124E756FE4F1081F2
:101680000181E091980182E5E89FF0011124EC5F6F
:10169000FC4F81898032B9F1803311F1803129F416
:1016A000613091F058F06230A9F00F900F900F90D8
:1016B0000F90DF91CF911F910F910895612F83E7D4
:1016C00092E00E94020BF1CF612F83E792E00E942B
:1016D000EA0AEBCF612F83E792E00E941A0BE5CF75
:1016E000613039F058F0623001F7812F902F0E945D
:1016F000F007812F902F0E940D08D7CF812F902FB8
:101700000E94F007D2CF662369F0613071F68091B4
:101710009A028F5F0E94740681111CC088E0898341
:1017200080E80AC080919A028F5F0E94740681113E
:1017300011C089E0898380E98A831B838FE78C83CA
:1017400080919A0244E050E0BE016F5F7F4F8F5F4F
:101750000E94A60580919A028F5F0E947E04A5CF09
:10176000FC012185822F90E001963781389FA001EE
:10177000399F500D11243681389FB001399F700D6B
:1017800011243581389FD001399FB00D1124B287C3
:101790007387548725870895FC012085822F90E068
:1017A00001963481389FA001399F500D1124338157
:1017B000389FB001399F700D11243281389FD001BC
:1017C000399FB00D1124B2877387548725870895F8
:1017D0008F929F92AF92BF92CF92DF92EF92FF9241
:1017E0000F931F93CF93DF93EC010E9472046B0160
:1017F0007C0189810E9407039C0191E0211531053C
:1018000009F090E08E85891701F14F855889698923
:101810007A8946015701841A950AA60AB70AB501C2
:10182000A4014B3051056105710578F09E87CF8684
:10183000D88AE98AFA8A232BB9F5CE010E94B00B27
:10184000EB89FC8960E088810995898D9A8D0097E4
:1018500009F444C04D895E896F89788D97018601AE
:10186000041B150B260B370BB901A801B0E0A0E053
:1018700084179507A607B70788F58C8D882319F17B
:101880009D8D981700F11A8E198ECE01DF91CF91A0
:101890001F910F91FF90EF90DF90CF90BF90AF908E
:1018A0009F908F900C94CC0B9D858885891738F478
:1018B000898D9A8D892B19F4CE010E94CC0BEB896E
:1018C000FC8961E0C0CF9D8588858917A0F4CE0191
:1018D0000E94CC0BCD8ADE8AEF8AF88EDF91CF9101
:1018E0001F910F91FF90EF90DF90CF90BF90AF903E
:1018F0009F908F900895CE010E94B00B8D8D8F5FC9
:101900008D8FE8CFCF93DF93FC0101900020E9F7A2
:101910003197AF01481B590BBC0185E192E00E9451
:101920006C07EC0142E050E06EE571E085E192E089
:101930000E946C078C0F9D1FDF91CF91089584E06A
:10194000E1E6F1E0DB0101900D928A95E1F784E098
:1019500008951F93CF93DF93EC01162F0E94321D41
:10196000181739F0612FCE01DF91CF911F910C94A0
:101970003A1DDF91CF911F9108958F929F92AF9260
:10198000BF92CF92DF92EF92FF920F931F93CF936C
:10199000DF937C01F70161915F01F8E46F9F4001E3
:1019A0001124C4010E94A90C8701E701619664011A
:1019B000CE18DF08C6018A0D9B1DF50161915F01FC
:1019C0000E94A90CAC16BD06A9F7E4016296F701C6
:1019D0006189C40141960E94A90C6401F4E4CF0E10
:1019E000D11C5E01F8016389CE010E94A90CF801A7
:1019F0006289CE0101960E94A90CF8016489CE018A
:101A000002960E94A90CF8016589CE0103960E94F6
:101A1000A90CF8016689CE0104960E94A90CF80170
:101A20006789CE0105960E94A90CF801608DCE0150
:101A300006960E94A90CF801618DCE0107960E94BE
:101A4000A90CF801628DCE0108960E94A90C2A9675
:101A5000F801638DC50109960E94A90C065F1F4F0E
:101A6000CC15DD0509F0BDCFF701EC5BFF4F6081C0
:101A7000CE010E94A90CF701EB5BFF4F6081C4010E
:101A80008B5B9F4F0E94A90CF701EA5BFF4F6081BF
:101A9000C4018A5B9F4F0E94A90CF701E95BFF4FCD
:101AA0006081C401895B9F4F0E94A90C81E0DF9196
:101AB000CF911F910F91FF90EF90DF90CF90BF904B
:101AC000AF909F908F900895853098F492E5899F0C
:101AD000F0011124EC5FFC4F918991509E3F48F436
:101AE000682F8093EC0189E691E00E94A90C81E0C7
:101AF000089580E008950C94321D2F923F924F92EA
:101B00005F926F927F928F929F92AF92BF92CF928D
:101B1000DF92EF92FF920F931F93CF93DF93CDB796
:101B2000DEB7C65AD1090FB6F894DEBF0FBECDBFDF
:101B300094E0692E93E0792E512C10E0CE010196AD
:101B40004C0128E4422EFE017296CB55DF4FF983FB
:101B5000E883C55AD040652DC4010E94AC090981B3
:101B6000049D60011124C6010E947B0D081789F1B4
:101B7000652DCE018D5A9F4F0E94AC0982E5FE0172
:101B8000ED5AFF4FD30101900D928A95E1F75394DE
:101B900082E5680E711C95E05912DDCF812FCA5580
:101BA000DF4F0FB6F894DEBF0FBECDBFDF91CF91F0
:101BB0001F910F91FF90EF90DF90CF90BF90AF906B
:101BC0009F908F907F906F905F904F903F902F905D
:101BD00008958E010E5F1F4F74015601A818B908B1
:101BE000C501800F911F0E947B0DF80181938F0129
:101BF000CB55DF4F88819981C55AD0408E179F07FA
:101C000079F786010E5E1F4FC60141960E947B0D3B
:101C10008A8B160194E4290E311CC8010E947B0DA9
:101C2000A82EB12CBA2CAA24F701B38AA28AC80123
:101C300001960E947B0DA82AF701B38AA28AC801E7
:101C400002960E947B0DF701848BC80103960E94C7
:101C50007B0DF701858BC80104960E947B0DF7016F
:101C6000868BC80105960E947B0DF701878BC80102
:101C700006960E947B0DF701808FC80107960E948F
:101C80007B0DF701818FC80108960E947B0DF7013B
:101C9000828F5801FAE0AF0EB11CC80109960E946C
:101CA0007B0DF701838FFAE0EF0EF11C8501A21482
:101CB000B30409F0B2CFC5010E947B0D26968FAF09
:101CC0002697C6018B5B9F4F0E947B0D27968FAF97
:101CD0002797C6018A5B9F4F0E947B0D28968FAF86
:101CE0002897C601895B9F4F0E947B0D29968FAF75
:101CF000299782E5F401D30101900D928A95E1F7CD
:101D000011E045CF4F925F926F927F928F929F9298
:101D1000AF92BF92CF92DF92EF92FF920F931F93F9
:101D2000CF93DF93CDB7DEB7C458D1090FB6F8947F
:101D3000DEBF0FBECDBF60E0CE0101960E94AC09B0
:101D400082E5FE013196A4E0B3E001900D928A9500
:101D5000E1F71092480377247A9470924903109225
:101D60004A038DEA682E60924B0344E050E061E63E
:101D700071E084E093E00E94950980E2809315036E
:101D800084E093E00E9482098FE290E065969FAF25
:101D90008EAF659766961FAE669767961FAE67977C
:101DA00068967FAE689769961FAE69976A961FAE70
:101DB0006A976B967FAE6B9793E3592E6C965FAEE6
:101DC0006C976D966FAE6D9780E390E06F969FAFC6
:101DD0008EAF6F97A0961FAEA097A1961FAEA1974A
:101DE000A2967FAEA297A3961FAEA397A4961FAE0E
:101DF000A497A5967FAEA597A6965FAEA697A79641
:101E00006FAEA79782E390E0A9969FAF8EAFA99798
:101E1000AA967FAEAA97AB967FAEAB97AC961FAE55
:101E2000AC97AD967FAEAD97AE967FAEAE97AF96C0
:101E30001FAEAF97E0965FAEE097E1966FAEE19789
:101E400084E390E0E3969FAF8EAFE397E4967FAE96
:101E5000E497E5961FAEE597E6961FAEE697E79600
:101E60007FAEE797E8961FAEE897E9961FAEE99731
:101E7000EA965FAEEA97EB966FAEEB9785E390E05C
:101E8000ED969FAF8EAFED97EE961FAEEE97EF9665
:101E90007FAEEF97C158DF4F1882CF57D040C05860
:101EA000DF4F1882C058D040CF57DF4F7882C158DB
:101EB000D040CE57DF4F1882C258D040CD57DF4FA9
:101EC0005882C358D040CC57DF4F6882C458D040A6
:101ED000BE016D5A7F4F84E093E00E94250284E0AA
:101EE00093E00E94BD0C61E0CE0101960E94AC0916
:101EF00082E5FE013196A6E5B3E001900D928A9548
:101F0000E1F770929A0310929B0310929C036092E7
:101F10009D0348E050E066E671E086E593E00E94AC
:101F2000950980E18093670386E593E00E9482092A
:101F300082E590E065969FAF8EAF659766961FAE7F
:101F4000669767961FAE679768967FAE68976996A3
:101F50001FAE69976A961FAE6A976B967FAE6B97B6
:101F60006C965FAE6C976D966FAE6D9781E590E065
:101F70006F969FAF8EAF6F97A0961FAEA097A1965A
:101F80001FAEA197A2967FAEA297A3961FAEA3976E
:101F9000A4961FAEA497A5967FAEA597A6965FAE12
:101FA000A697A7966FAEA79780E590E0A9969FAFFA
:101FB0008EAFA997AA967FAEAA97AB967FAEAB9746
:101FC000AC961FAEAC97AD967FAEAD97AE967FAE9A
:101FD000AE97AF961FAEAF97E0965FAEE097E196F3
:101FE0006FAEE19789E290E0E3969FAF8EAFE39703
:101FF000E4967FAEE497E5961FAEE597E6961FAEB2
:10200000E697E7967FAEE797E8961FAEE897E996E2
:102010001FAEE997EA965FAEEA97EB966FAEEB9745
:1020200080E290E0ED969FAF8EAFED97EE961FAEFB
:10203000EE97EF967FAEEF97C158DF4F1882CF57DC
:10204000D040C058DF4F1882C058D040CF57DF4F24
:102050007882C158D040CE57DF4F1882C258D04046
:10206000CD57DF4F5882C358D040CC57DF4F6882DE
:10207000C458D040BE016D5A7F4F86E593E00E9460
:10208000250286E593E00E94BD0C62E0CE01019638
:102090000E94AC0982E5FE013196A8EAB3E0019006
:1020A0000D928A95E1F77092EC031092ED03709215
:1020B000EE036092EF0343E050E06FE671E088EAE0
:1020C00093E00E94950920E3422E4092B90388EAEA
:1020D00093E00E9482093AEE832E912C65969FAE82
:1020E0008EAE659766961FAE669767961FAE67972A
:1020F00068967FAE689769961FAE69976A961FAE1D
:102100006A976B967FAE6B976C965FAE6C976D9689
:102110006FAE6D9749EEA42EB12C6F96BFAEAEAEEA
:102120006F97A0961FAEA097A1961FAEA197A296FB
:102130007FAEA297A3961FAEA397A4961FAEA497B7
:10214000A5967FAEA597A6965FAEA697A7966FAE0B
:10215000A79756EBC52ED12CA996DFAECEAEA99788
:10216000AA961FAEAA97AB967FAEAB97AC961FAE62
:10217000AC97AD961FAEAD97AE967FAEAE97AF96CD
:102180001FAEAF97E0965FAEE097E1966FAEE19736
:1021900065EBE62EF12CE396FFAEEEAEE397E49608
:1021A0001FAEE497E5967FAEE597E6961FAEE697FD
:1021B000E7961FAEE797E8967FAEE897E9961FAEE1
:1021C000E997EA965FAEEA97EB966FAEEB970DEC68
:1021D00010E0ED961FAF0EAFED97EE967FAEEE9747
:1021E000EF961FAEEF97C158DF4F1882CF57D04000
:1021F000C058DF4F7882C058D040CF57DF4F188289
:10220000C158D040CE57DF4F1882C258D040CD576A
:10221000DF4F5882C358D040CC57DF4F6882C45834
:10222000D040BE016D5A7F4F88EA93E00E9425029C
:1022300088EA93E00E94BD0C63E0CE0101960E9403
:10224000AC0982E5FE013196AAEFB3E001900D9250
:102250008A95E1F770923E0410923F047092400418
:102260006092410443E050E06FE671E08AEF93E052
:102270000E94950940920B048AEF93E00E94820924
:1022800065969FAE8EAE659766961FAE669767960B
:102290001FAE679768967FAE689769961FAE69977D
:1022A0006A961FAE6A976B967FAE6B976C965FAE21
:1022B0006C976D966FAE6D976F96BFAEAEAE6F9723
:1022C000A0961FAEA097A1961FAEA197A2967FAE33
:1022D000A297A3961FAEA397A4961FAEA497A59608
:1022E0007FAEA597A6965FAEA697A7966FAEA79767
:1022F000A996DFAECEAEA997AA961FAEAA97AB96C7
:102300007FAEAB97AC961FAEAC97AD961FAEAD97B8
:10231000AE967FAEAE97AF961FAEAF97E0965FAE2C
:10232000E097E1966FAEE197E396FFAEEEAEE397EE
:10233000E4961FAEE497E5967FAEE597E6961FAE6E
:10234000E697E7961FAEE797E8967FAEE897E9969F
:102350001FAEE997EA965FAEEA97EB966FAEEB9702
:10236000ED961FAF0EAFED97EE967FAEEE97EF9620
:102370001FAEEF97C158DF4F1882CF57D040C058DB
:10238000DF4F7882C058D040CF57DF4F1882C158F6
:10239000D040CE57DF4F1882C258D040CD57DF4FC4
:1023A0005882C358D040CC57DF4F6882C458D040C1
:1023B000BE016D5A7F4F8AEF93E00E9425028AEF9B
:1023C00093E00E94BD0C64E0CE0101960E94AC092E
:1023D00082E5FE013196ACE4B4E001900D928A955D
:1023E000E1F77092900410929104709292046092BE
:1023F000930444E050E06FE671E08CE494E00E94C6
:10240000950940925D048CE494E00E9482096596EF
:102410009FAE8EAE659766961FAE669767961FAEA7
:10242000679768967FAE689769961FAE69976A96B8
:102430001FAE6A976B967FAE6B976C965FAE6C978C
:102440006D966FAE6D976F96BFAEAEAE6F97A0965E
:102450001FAEA097A1961FAEA197A2967FAEA2979E
:10246000A3961FAEA397A4961FAEA497A5967FAE82
:10247000A597A6965FAEA697A7966FAEA797A996C3
:10248000DFAECEAEA997AA961FAEAA97AB967FAE47
:10249000AB97AC961FAEAC97AD961FAEAD97AE9610
:1024A0007FAEAE97AF961FAEAF97E0965FAEE09768
:1024B000E1966FAEE197E396FFAEEEAEE397E4965A
:1024C0001FAEE497E5967FAEE597E6961FAEE697DA
:1024D000E7961FAEE797E8967FAEE897E9961FAEBE
:1024E000E997EA965FAEEA97EB966FAEEB97ED96BB
:1024F0001FAF0EAFED97EE967FAEEE97EF961FAE45
:10250000EF97C158DF4F1882CF57D040C058DF4FE8
:102510007882C058D040CF57DF4F1882C158D04082
:10252000CE57DF4F1882C258D040CD57DF4F588268
:10253000C358D040CC57DF4F6882C458D040BE014A
:102540006D5A7F4F8CE494E00E9425028CE494E065
:102550000E94BD0C80E00E94640D0E947D0DCC574E
:10256000DF4F0FB6F894DEBF0FBECDBFDF91CF9126
:102570001F910F91FF90EF90DF90CF90BF90AF90A1
:102580009F908F907F906F905F904F900895AF9243
:10259000BF92CF92DF92EF92FF920F931F93CF9350
:1025A000DF9380939801C82ED12C99E9E92E91E010
:1025B000F92E92E5899F800111240C5F1C4F970131
:1025C00090E080E0F801E80FF91F4AE07296D90127
:1025D00001900D924A95E1F7265F3F4F0A968233AC
:1025E000910581F7CEE9D4E081E3A82E8BE0B82EE7
:1025F0001A8E198ECE010E94CC0BBC8AAB8AD701F1
:1026000018968C91189712962D913D914C912A8392
:102610003B834C8388878D85882331F09985891782
:1026200018F4CE010E94CC0BF701818525813681FB
:1026300047812D833E834F8389879D8588858917B0
:1026400018F4CE010E94B00BCE010E94CC0B6E9606
:10265000FAE0EF0EF11C85E0C433D80749F68EE1AD
:102660008C9DE0018D9DD00D1124C256DB4F8985D4
:1026700095E09C8F1D8E24E630E03A8F298F8B8F5A
:102680000E9472046D8B7E8B8F8B988FD801519630
:102690008C91803299F070F4803191F080E0DF917C
:1026A000CF911F910F91FF90EF90DF90CF90BF904F
:1026B000AF900895803369F08F3F81F781E0EFCFCD
:1026C00083E792E00E94F90983E792E00E94CC0739
:1026D000F5CFEFE8F2E088E0DF011D928A95E9F797
:1026E00048E050E0BF018DE892E00E94DF07E6CFAE
:1026F000611104C00E94C7128093E30108951F92E4
:102700000F920FB60F9211242F933F938F939F93A5
:10271000AF93BF938091F2019091F301A091F401E6
:10272000B091F5013091F10123E0230F2D3758F5D9
:102730000196A11DB11D2093F1018093F2019093A8
:10274000F301A093F401B093F5018091F60190910B
:10275000F701A091F801B091F9010196A11DB11DF9
:102760008093F6019093F701A093F801B093F901DB
:10277000BF91AF919F918F913F912F910F900FBE7D
:102780000F901F90189526E8230F0296A11DB11DEA
:10279000D2CF1F920F920FB60F9211242F933F9317
:1027A0004F935F936F937F938F939F93AF93BF9359
:1027B000CF93EF93FF93C091E1008091E100837F7D
:1027C0008093E100C3FF0FC01092E90081E0809385
:1027D000EB001092EC0082E38093ED001092140263
:1027E00088E08093F000C2FF15C083E00E947E0461
:1027F0008091DC01882329F08091DC018150809355
:10280000DC0180911302882329F08091130281500A
:1028100080931302C4FF23C08091E2008E7E81600A
:102820008093E2008091E1008F7E8093E1008091AF
:10283000DD018E7E80618093DD01FF91EF91CF916C
:10284000BF91AF919F918F917F916F915F914F91C8
:102850003F912F910F900FBE0F901F901895C0FFC2
:10286000ECCF8091E2008E7E80618093E2008091C7
:10287000E1008E7E8093E1008091DD018E7E81609B
:10288000DACF1F920F920FB60F921124CF92DF92E0
:10289000EF92FF920F931F932F933F934F935F936A
:1028A0006F937F938F939F93AF93BF93EF93FF9318
:1028B000CF93DF93CDB7DEB76C97DEBFCDBF10925D
:1028C000E9008091E80083FF2FC089E0FE01759642
:1028D000EE2EDF2E815029F09091F10090833196F9
:1028E000F9CF84E68093130282EF8093E8008D890C
:1028F00087FF39C09091E80090FFFCCF982F907629
:1029000009F033C19E894F89588D2F89F88C911118
:1029100031C0803861F58091DE018093F100109222
:10292000F1008EEF8093E8006C960FB6F894DEBF4E
:102930000FBECDBFDF91CF91FF91EF91BF91AF91CE
:102940009F918F917F916F915F914F913F912F91C7
:102950001F910F91FF90EF90DF90CF900F900FBEDF
:102960000F901F9018959EEF9093E800C7CF10929C
:10297000F100D5CF913059F48111D3CF41305105B9
:1029800081F68091DE018D7F8093DE01CACF933086
:1029900049F48111C6CF4130510519F68091DE010D
:1029A0008260F2CF953041F48091E80080FFFCCF47
:1029B00020682093E300B5CF963009F0A8C00B8DB6
:1029C0001C8D22E01092E9001092DA011092D901D8
:1029D000F2122EC01092D8011092D7010E94BE06AA
:1029E0001F8299E09983FA8291E09E8390EA98870A
:1029F0009AEF99872091D9013091DA01275F3F4FF3
:102A00003C832B838D831092E9001092DA0110929F
:102A1000D9011093D8010093D70149E050E0BE01DD
:102A20006F5F7F4F80E00E94E9040E94BE0679CF6D
:102A30001093D8010093D7010E94AA06DC011296D8
:102A40000D911C910115110509F457C1D801ED91A3
:102A5000FC910480F581E02D6E2D7D2DC801099536
:102A6000009709F045C1F80100851185EBCFF3E02F
:102A7000FF120EC08F89882309F440C0823061F4B0
:102A800040E86DE088E093E00E94B604811149CFF0
:102A900081E28093EB0048CF813029F440E863E085
:102AA00084E093E0F1CF833099F70E94AA06DC011D
:102AB0001296ED90FC908E010F5F1F4F6801E1149C
:102AC000F10479F0D701ED91FC910680F781E02DBA
:102AD000B801C7010995080F111DF701E084F184C1
:102AE000EECFD8011C92F60101900020E9F7319752
:102AF000BF016C197D0940E0C601C6CF6EEE72E0E1
:102B0000FB01449150E080E80E94E9040ACF97302D
:102B100009F4BECF983021F481E08093F10001CF19
:102B2000993009F0FECE837009F0B2CFE1E0F1E018
:102B300081E031E096E32191222371F08093E90056
:102B40003093EB00DF0111972C912093EC009093D0
:102B5000ED008F5F873079F78EE78093EA0010925F
:102B6000EA008F8980931402DCCE8B8D9C8D1092AD
:102B7000E9001092DA011092D9019093D801809364
:102B8000D701898D81119AC08E899D89913A49F426
:102B9000813209F07DCF47E050E06BE071E080E0EA
:102BA000B3CF913209F074CF833269F48F89988D55
:102BB000B0E0A0E08093070190930801A093090181
:102BC000B0930A01AECE8032A9F48091E80082FF72
:102BD000FCCF88E0EBE0F1E0815029F09091F1002A
:102BE00090833196F9CF84E6809313028BEF809324
:102BF000E80097CE823209F094CE8F89809312013B
:102C0000EEEFFFE7859194918B3F9C4D51F1E0E011
:102C1000F8E080910B0190910C01A0910D01B09111
:102C20000E01803B9440A105B105F1F480911201A1
:102C300080FD1AC0EE3F8AE0F80789F587E797E73D
:102C400091838083809160008093DB0188E19BE029
:102C50000FB6F894A895809360000FBE9093600023
:102C600060CEEEEFFAE0D5CF80819181873797472C
:102C700009F057CEA895809160008861809360002C
:102C80008091DB0180936000EE3F2AE0F20789F03B
:102C90008091FE0A9091FF0A9183808342CE8081C9
:102CA00091818737980751F29093FF0A8093FE0A2B
:102CB000C5CF1092FF0A1092FE0A33CE0E94AA06D8
:102CC000DC0112960D911C910115110509F4E0CE5D
:102CD000D801ED91FC910190F081E02D6E2D7D2DBC
:102CE000C801099581111DCEF80100851185ECCF31
:102CF000181619060CF415CECBCEF1E0FF12B7CEA4
:102D000062EF72E0FDCEFF920F931F93CF93DF939C
:102D1000CDB7DEB7C255D1090FB6F894DEBF0FBEEE
:102D2000CDBF109218021092170288EE93E0A0E037
:102D3000B0E08093190290931A02A0931B02B09303
:102D40001C028CE291E090931602809315028FEFA3
:102D50009FEF9093220280932102109276021092AC
:102D600075028EE391E090937402809373028091D8
:102D70006B02811113C0109266021092650281E508
:102D800093E090936802809367028BE390E09093C6
:102D90006A028093690281E080936B020E94370788
:102DA000FC01A385B485109709F003C185E692E084
:102DB00094878387858596852091690230916A0280
:102DC000820F931F9687858780E591E090938E020E
:102DD00080938D0280918502811113C01092800230
:102DE00010927F028CE893E090938202809381029C
:102DF00089E190E0909384028093830281E0809344
:102E000085020E943707FC01A385B485109709F05D
:102E1000DBC08FE792E09487838785859685209134
:102E2000830230918402820F931F9687858782E008
:102E300080939B0280939C0281EA92E090939E0291
:102E400080939D021092A00210929F0286E591E06D
:102E5000909398028093970280E88093A10281E882
:102E60008093A2020E94AA0667E972E00E94EF0620
:102E70000EE914E0FF24FA94F801158616861786E9
:102E8000108A118A128A158A168A178A108E128E53
:102E9000118E158EF0821182128213821482108696
:102EA0001582168217821186128613861486148A5A
:102EB000138A62E080E00E943003025E1F4FF5E05B
:102EC00004331F07C9F60CE413E0F80111821082E5
:102ED000128213821482158216821782108611863E
:102EE00060E0CE0101960E94AC090E5A1F4FF4E03B
:102EF000063E1F0751F71092FB021092FA02109241
:102F0000FC021092FD021092FE021092FF0210923B
:102F1000000310920103109202031092030360E079
:102F2000CE0101960E94AC0985E090E09093A40246
:102F30008093A3021092A5028FE090E09093A702E5
:102F40008093A60280E18093A8021092B0021092B2
:102F5000AF021092B10261E00E9430038091A6029C
:102F60009091A7020E94701D9093AE028093AD02D3
:102F7000E2EEF3E0E491F0E0EE0FFF1FEC53FC4FC4
:102F8000859194919093B0028093AF02E5EBF3E0CA
:102F9000E491E093B102CE5ADF4F0FB6F894DEBF52
:102FA0000FBECDBFDF91CF911F910F91FF9008957C
:102FB000DC018D919C9111970097D1F785E692E005
:102FC0008D939C93F7CEDC018D919C911197009786
:102FD000D1F78FE792E08D939C931FCFCF93DF9330
:102FE000CDB7DEB7C058D1090FB6F894DEBF0FBE1B
:102FF000CDBF789484B5826084BD84B5816084BD82
:1030000085B5826085BD85B5816085BD80916E0086
:10301000816080936E0010928100809181008260B7
:1030200080938100809181008160809381008091F4
:103030008000816080938000809191008260809305
:103040009100809191008160809391008091900027
:103050008160809390008091C10084608093C10062
:103060008091C10082608093C1008091C100816025
:103070008093C1008091C30081608093C3008091E0
:10308000C00082608093C0008091C2008160809304
:10309000C20080917A00846080937A0080917A00E7
:1030A000826080937A0080917A00816080937A00B8
:1030B00080917A00806880937A00109214021092B6
:1030C000DE011092DD018091D70081608093D700EE
:1030D00080EA8093D80089B5806189BD89B5826016
:1030E00089BD09B400FEFDCF61E070E080E090E0B2
:1030F0000E9440048091D8008F7C80618093D8002A
:103100008091E000807F8093E0008091E1008E7EDE
:103110008093E1008DE08093E2008FEF9FEF90932A
:1031200022028093210200E010E020E041E160E013
:10313000CE0101960E946C038EE1FE013196AEE94C
:10314000B4E001900D928A95E1F720E047E161E05B
:10315000CE0101960E946C038EE1FE013196ACEB2C
:10316000B4E001900D928A95E1F720E043E062E03F
:10317000CE0101960E946C038EE1FE013196AAED0C
:10318000B4E001900D928A95E1F720E044E063E01D
:10319000CE0101960E946C038EE1FE013196A8EFEC
:1031A000B4E001900D928A95E1F720E04EE164E0F1
:1031B000CE0101960E946C038EE1FE013196A6E1DC
:1031C000B5E001900D928A95E1F70E947D0D811185
:1031D00002C00E94820E89E691E00E947B0D8093DE
:1031E000EC011092E3012091A80230E0F901EE5CBD
:1031F000FC4F8491F901EB55FC4F0491F901EE521B
:10320000FC4F1491112391F081110E94BB02E12F18
:10321000F0E0EE0FFF1FEC53FC4FA591B4918FB778
:10322000F894EC9100950E230C938FBF0E949C03A1
:103230006093A9027093AA028093AB029093AC02B0
:10324000E091AD02F091AE022091A3023091A40270
:10325000C901880F991F820F931F8E0F9F1FE817B8
:10326000F90728F41082118212823396F8CF8091E8
:10327000A50280688093A5028EE10E94070310E1F9
:10328000892B09F010E084E00E940703892B09F0E4
:103290002CC188E0182B83E00E940703892B09F0DA
:1032A00026C184E0182B87E10E940703892B09F0CF
:1032B00020C182E0182B81E10E94070321E0892BC5
:1032C00009F020E0122B103109F415C11F3109F467
:1032D000C7C174E0E72E73E0F72E0EE914E0D12C9D
:1032E000C12CE4EFAE2EBB24B394C8010E94E80BBE
:1032F00082E5F701DE01119601900D928A95E1F7C2
:10330000F701E95BFF4F9080F701818981508E3F83
:10331000E0F528968DAD9EADAFAD2897F80182837C
:103320009383A48390868585882331F091858917BE
:1033300018F4C8010E94CC0B28968DAD9EADAFADA0
:103340002897F80185839683A78391869585808544
:10335000891718F4C8010E94B00BD8011A964D9134
:103360005D916C91C6010E943802F8018185148E2E
:10337000158EB28EA18E838F0E947204D80155964D
:103380006D937D938D939C935897BFEFCB1ADB0A77
:10339000025E1F4FE2E5EE0EF11CF5E0CF16D10400
:1033A00009F0A3CF0E94C1030E9472046093DF0161
:1033B0007093E0018093E1019093E2010E94720416
:1033C0006093E4017093E5018093E6019093E70137
:1033D0000E9472046093E8017093E9018093EA010E
:1033E0009093EB0162E3462E512C612C712C80915D
:1033F000E3018111FAC18091E8019091E901A09166
:10340000EA01B091EB014091DF015091E001609140
:10341000E1017091E201841B950BA60BB70B883B71
:103420009B40A105B10508F0DAC10E9472046093C7
:10343000E8017093E9018093EA019093EB018EE932
:1034400094E00E94E80B8CEB94E00E94E80B8AED7C
:1034500094E00E94E80B88EF94E00E94E80B86E17C
:1034600095E00E94E80BC090E801D090E901E0905F
:10347000EA01F090EB01C701B601A30192010E949D
:10348000481D672B682B692B09F0B1CF8091E401AF
:103490009091E501A091E601B091E701C816D90627
:1034A000EA06FB0609F4A3CF5EE9A52E54E0B52E8B
:1034B00010E000E0D5011A964D915D916C91C80124
:1034C0000E9438020F5F1F4FBEE1AB0EB11C0530EA
:1034D000110581F70E94C103C092E401D092E50179
:1034E000E092E601F092E70182CF80E0D3CE80E067
:1034F000D9CE80E0DFCE6FEF7FEF8FEF0E94D10952
:1035000068EB7BE080E090E00E944004B8E4EB2EA2
:10351000B3E0FB2E00E0D7014D915D916C91802FBF
:103520000E94CC090F5FB2E5EB0EF11C053099F754
:103530008EE10E94070310E1892B09F010E084E07E
:103540000E940703892B09F07FC088E0182B83E0D5
:103550000E940703892B09F079C084E0182B87E1CA
:103560000E940703892B09F073C082E0182B81E1C8
:103570000E94070321E0892B09F020E0212BC1F2F2
:1035800090E080E0022E000C330BA901082E02C04F
:10359000559547950A94E2F74130510509F05AC014
:1035A0000E94640D882321F260E070E080E00E94B8
:1035B000D10964E670E080E090E00E944004A8E455
:1035C000EA2EA3E0FA2E10E08091EC0140E050E0FA
:1035D00060E0811721F0F701408151816281812FE4
:1035E0000E94CC091F5FF2E5EF0EF11C153061F768
:1035F00064E670E080E090E00E944004F8E4EF2E82
:10360000F3E0FF2E10E0D7014D915D916C91812F79
:103610000E94CC091F5FB2E5EB0EF11C153099F743
:10362000015039F664E670E080E090E00E944004CA
:1036300060E07FEF80E00E94D10968EB7BE080E0F2
:1036400090E00E94400445CE80E080CF80E086CFAD
:1036500080E08CCF01968530910509F096CF68CF38
:103660006FEF70E080E00E94D1090E94820EE5CFEA
:10367000840D951DDC014C933F5FACC12033D1F02C
:103680002133E1F088E891E097C043E050E069E140
:1036900071E085E192E00E946C070FB6F8947EBE5F
:1036A0000FBE6DBEC114D10409F4C4C00E94000055
:1036B000C1C010E0812F0E94F808EFCF82EB92E0AA
:1036C000163028F4139DC00111248C5F9C4F3834B0
:1036D00008F470C0FC013081D2012C9132136AC011
:1036E00092012F5F3F4FAC014F5F5F4FB2016F5EA2
:1036F0007F4FF90101919F01FA010193AF01261754
:103700003707B9F7F2012189FC01218B9C01B20135
:103710006E5C7F4F52965C91529753964C915397A3
:10372000F901538B428B54964C915497448B559688
:103730004C915597458B56964C915697468B57967C
:103740004C915797478B58964C915897408F599664
:103750004C915997418F5A964C915A97428F5B964C
:103760004C915B97438F1A96265F3F4F6A177B07F2
:1037700089F6DC01AC5BBF4F92012C5B3F4FF90136
:1037800020812C93119692012B5B3F4FF9012081F0
:103790002C93119692012A5B3F4FF90120812C93C3
:1037A0001196319620812C930E94BD0C812F0E948E
:1037B000C71280CF83E791E00E94820C6ECF89E729
:1037C00091E01530C8F7812F0E94640D6091EC01E3
:1037D00085E192E00E94820760CF10E0F4CF8091F3
:1037E000EC010E94C7128093E3014EE9E42E44E00D
:1037F000F42E10E000E0C7010E94CC0BF7014285D7
:1038000053856485C8010E9438020F5F1F4FFEE197
:10381000EF0EF11C0530110571F70E94C10392E310
:10382000892E912CA12CB12C22E5322E30E0C32E12
:1038300030E0D32E0E9472046093E8017093E90196
:103840008093EA019093EB018EE994E00E94E80BEB
:103850008CEB94E00E94E80B8AED94E00E94E80B68
:1038600088EF94E00E94E80B86E195E00E94E80B67
:103870004090E8015090E9016090EA017090EB01FE
:10388000C301B201A50194010E94481D672B682B5A
:10389000692B69F58091E4019091E501A091E60121
:1038A000B091E701481659066A067B0601F18EE9D8
:1038B000E82E84E0F82E10E000E0D7011A964D9132
:1038C0005D916C91C8010E9438020F5F1F4FBEE1ED
:1038D000EB0EF11C0530110581F70E94C1034092E7
:1038E000E4015092E5016092E6017092E7010E94C6
:1038F00072040091ED011091EE012091EF013091E1
:10390000F001601B710B820B930B693E73408105C4
:10391000910508F4C7CE0E9472046093ED01709384
:10392000EE018093EF019093F00185E192E00E9417
:10393000BC07181619060CF0B5CE6DB67EB68E0112
:103940000F5F1F4FF12CE12C0E94720460931D0247
:1039500070931E0280931F029093200285E192E0F3
:103960000E94A00797FF54C00E94720420911D027C
:1039700030911E0240911F0250912002621B730B76
:10398000840B950B2091190230911A0240911B0271
:1039900050911C026217730784079507F8F229817A
:1039A0008DB79EB78E199F090FB6F8949EBF0FBEB4
:1039B0008DBFADB7BEB711962D01B2E0EB16F10485
:1039C000B0F11A8130E0E2E0EE16F104A9F0F2E085
:1039D000EF1AF108832F90E08E159F0568F4A3E09D
:1039E000B0E0AC0FBD1FA80FB91F4C914A3019F0C1
:1039F0004D3009F03DCE3150213209F4E0CE08F0CF
:103A00003DCE203109F441CE203209F4DFCE3ACE4A
:103A10008A30910521F2D8018D938D01BFEFEB1A09
:103A2000FB0AE0E8EE16F10409F08ECFB8CF2132A0
:103A300009F4D3CE30F3203309F43BCE30E010E06C
:103A4000213309F43FCE1ECECF93DF93C3EAD2E0F9
:103A500060E08D810E9430038A859B85DF91CF9144
:103A60000C940C1EF999FECF92BD81BDF89A99274E
:103A700080B50895262FF999FECF1FBA92BD81BD5A
:103A800020BD0FB6F894FA9AF99A0FBE01960895E0
:103A9000A1E21A2EAA1BBB1BFD010DC0AA1FBB1F52
:103AA000EE1FFF1FA217B307E407F50720F0A21BC4
:103AB000B30BE40BF50B661F771F881F991F1A9431
:103AC00069F760957095809590959B01AC01BD015B
:103AD000CF010895EE0FFF1F0590F491E02D09949A
:103AE0000F931F93CF93DF938230910510F482E000
:103AF00090E0E0913605F091370530E020E0B0E04D
:103B0000A0E0309799F42115310509F44AC0281B2B
:103B1000390B24303105D8F58A819B8161157105F7
:103B200089F1FB0193838283FE0111C040815181A1
:103B30000281138148175907E0F04817590799F493
:103B4000109761F012960C93129713961C9332966D
:103B5000CF01DF91CF911F910F910895009336050A
:103B600010933705F4CF2115310551F04217530753
:103B700038F0A901DB019A01BD01DF01F801C1CFD5
:103B8000EF01F9CF9093370580933605CDCFFE0135
:103B9000E20FF31F819391932250310939832883D7
:103BA000D7CF2091340530913505232B41F4209156
:103BB000150130911601309335052093340520917D
:103BC0001301309114012115310541F42DB73EB791
:103BD0004091170150911801241B350BE0913405D9
:103BE000F0913505E217F307A0F42E1B3F0B2817C1
:103BF000390778F0AC014E5F5F4F2417350748F066
:103C00004E0F5F1F50933505409334058193919378
:103C10009FCFF0E0E0E09CCFCF93DF930097E9F0F7
:103C2000FC01329713821282A0913605B0913705BC
:103C3000ED0130E020E01097A1F420813181820F66
:103C4000931F20913405309135052817390709F065
:103C500061C0F0933505E0933405DF91CF9108956D
:103C6000EA01CE17DF07E8F54A815B819E01411525
:103C70005105B1F7E901FB83EA8349915991C40FDA
:103C8000D51FEC17FD0761F4808191810296840FA6
:103C9000951FE90199838883828193819B838A831D
:103CA000F0E0E0E012968D919C9113970097B9F5A2
:103CB0002D913C911197CD010296820F931F209177
:103CC0003405309135052817390739F6309751F505
:103CD0001092370510923605B0933505A093340540
:103CE000BCCFD383C28340815181840F951FC817F5
:103CF000D90761F44E5F5F4F88819981480F591F42
:103D0000518340838A819B8193838283211531056E
:103D100009F0B0CFF0933705E09336059ECFFD0153
:103D2000DC01C0CF13821282D7CF11E0CAEFD1E0FD
:103D300004C0FE010E946A1D2196CB3FD107C9F73E
:043D4000F894FFCF25
:103D440000C18081000000FFFFFFFF00E1000000D0
:103D5400000000000038058000020101000000009E
:103D64007D024A050F05A0020000000082076C07CF
:103D74009B079807BC07A007AC07000000001A0BBC
:103D84007D06DC07DB07F909CC07080A0000000000
:103D9400DF07000000002608280823089F0C0D0AEE
:103DA400004D494449004B4559424F415244004853
:103DB4004944004552524F5200494E56414C4944E1
:103DC4002050524553455400554E4B4E4F574E20AC
:083DD400434F4D4D414E4400E8
:00000001FF
